{
  "_format": "hh-sol-artifact-1",
  "contractName": "Transactions",
  "sourceName": "contracts/Transactions.sol",
  "abi": [
    {
      "anonymous": false,
      "inputs": [
        {
          "indexed": false,
          "internalType": "address",
          "name": "sender",
          "type": "address"
        },
        {
          "indexed": false,
          "internalType": "address",
          "name": "receiver",
          "type": "address"
        },
        {
          "indexed": false,
          "internalType": "uint256",
          "name": "amount",
          "type": "uint256"
        },
        {
          "indexed": false,
          "internalType": "string",
          "name": "message",
          "type": "string"
        },
        {
          "indexed": false,
          "internalType": "uint256",
          "name": "timestamp",
          "type": "uint256"
        },
        {
          "indexed": false,
          "internalType": "string",
          "name": "keyword",
          "type": "string"
        }
      ],
      "name": "Transfer",
      "type": "event"
    },
    {
      "inputs": [
        {
          "internalType": "address payable",
          "name": "receiver",
          "type": "address"
        },
        {
          "internalType": "uint256",
          "name": "amount",
          "type": "uint256"
        },
        {
          "internalType": "string",
          "name": "message",
          "type": "string"
        },
        {
          "internalType": "string",
          "name": "keyword",
          "type": "string"
        }
      ],
      "name": "publishTransaction",
      "outputs": [],
      "stateMutability": "nonpayable",
      "type": "function"
    }
  ],
  "bytecode": "0x608060405234801561001057600080fd5b506104d3806100206000396000f3fe608060405234801561001057600080fd5b506004361061002b5760003560e01c80637d0ee35714610030575b600080fd5b61004a60048036038101906100459190610281565b61004c565b005b7f416cfa4330a4565f45c2fd2dd4826a83a37443aba2ce6f79477c7355afac35fa3385858542866040516100859695949392919061042e565b60405180910390a150505050565b6000604051905090565b600080fd5b600080fd5b600073ffffffffffffffffffffffffffffffffffffffff82169050919050565b60006100d2826100a7565b9050919050565b6100e2816100c7565b81146100ed57600080fd5b50565b6000813590506100ff816100d9565b92915050565b6000819050919050565b61011881610105565b811461012357600080fd5b50565b6000813590506101358161010f565b92915050565b600080fd5b600080fd5b6000601f19601f8301169050919050565b7f4e487b7100000000000000000000000000000000000000000000000000000000600052604160045260246000fd5b61018e82610145565b810181811067ffffffffffffffff821117156101ad576101ac610156565b5b80604052505050565b60006101c0610093565b90506101cc8282610185565b919050565b600067ffffffffffffffff8211156101ec576101eb610156565b5b6101f582610145565b9050602081019050919050565b82818337600083830152505050565b600061022461021f846101d1565b6101b6565b9050828152602081018484840111156102405761023f610140565b5b61024b848285610202565b509392505050565b600082601f8301126102685761026761013b565b5b8135610278848260208601610211565b91505092915050565b6000806000806080858703121561029b5761029a61009d565b5b60006102a9878288016100f0565b94505060206102ba87828801610126565b935050604085013567ffffffffffffffff8111156102db576102da6100a2565b5b6102e787828801610253565b925050606085013567ffffffffffffffff811115610308576103076100a2565b5b61031487828801610253565b91505092959194509250565b600061032b826100a7565b9050919050565b61033b81610320565b82525050565b6000819050919050565b600061036661036161035c846100a7565b610341565b6100a7565b9050919050565b60006103788261034b565b9050919050565b600061038a8261036d565b9050919050565b61039a8161037f565b82525050565b6103a981610105565b82525050565b600081519050919050565b600082825260208201905092915050565b60005b838110156103e95780820151818401526020810190506103ce565b60008484015250505050565b6000610400826103af565b61040a81856103ba565b935061041a8185602086016103cb565b61042381610145565b840191505092915050565b600060c0820190506104436000830189610332565b6104506020830188610391565b61045d60408301876103a0565b818103606083015261046f81866103f5565b905061047e60808301856103a0565b81810360a083015261049081846103f5565b905097965050505050505056fea2646970667358221220e83970e99688b06c909e16b2332b441eb47383006d5adbdc1600ec67cd96f9ee64736f6c63430008110033",
  "linkReferences": {},
  "deployedLinkReferences": {}
}